:100000000EC01BC01AC019C018C018C016C015C039
:1000100014C013C012C011C010C00FC00EC01124F4
:100020001FBECFEDCDBF20E0A0E6B0E001C01D9225
:10003000A936B207E1F74CD06BC0E2CF1F920F9206
:100040000FB60F9211242F933F938F939F93AF93EB
:10005000BF938091650090916600A0916700B09178
:1000600068003091640020E3230F2D3720F4409680
:10007000A11DB11D05C023EB230F4196A11DB11D8C
:10008000209364008093650090936600A0936700BE
:10009000B09368008091600090916100A09162002F
:1000A000B09163000196A11DB11D809360009093F3
:1000B0006100A0936200B0936300BF91AF919F91E4
:1000C0008F913F912F910F900FBE0F901F90189519
:1000D00078948AB582608ABD8AB581608ABD83B70B
:1000E000826083BF83B7816083BF89B7826089BF25
:1000F00080B7826080BF3298319A309A379A8CB537
:1001000080648CBDC0E0D0E02097F1F379DFFCCFB4
:04011000F894FFCF91
:00000001FF
